S0100000506F6E6747616D652E7372656306
S11300000C94B2020C94CF020C94CF020C94CF0245
S11300100C94CF020C94CF020C94CF020C94CF0218
S11300200C94CF020C94CF020C94CF020C94CF0208
S11300300C94CF020C94CF020C94CF020C94CF02F8
S11300400C94CF020C94CF020C94CF020C94CF02E8
S11300500C94CF020C94CF020C94CF020C94CF02D8
S11300600C94CF020C94CF0200000000007CDAF262
S1130070DA7C7CD6F2D67C387C3E7C38183C7E3CDC
S11300801838EABEEA38387AFE7A3800183C180084
S1130090FFE7C3E7FF0018241800FFE7DBE7FF0CC6
S11300A0125C607064949E946402FEA0A0E002FE60
S11300B0A0A4FC5A3CE73C5AFE7C3838101038386F
S11300C07CFE2844FE4428FAFA00FAFA6090FE8086
S11300D0FE006691A95606060606062945FF45292F
S11300E010207E201008047E0408101054381010CC
S11300F038541010780808080830783078300C1C10
S11301007C1C0C60707C706000000000000000FA31
S1130110000000E000E00028FE28FE282454FE54DD
S113012048C4C81026466C926A040A0010E0C00055
S1130130003844820000824438005438FE38541099
S1130140107C101000010E0C001010101010000094
S113015006060004081020407C8A92A27C0042FE1D
S113016002004E92929262848292B2CC182848FE87
S113017008E4A2A2A29C3C5292928C82848890E0D1
S11301806C9292926C629292947800002800000023
S1130190022C0000001028448228282828280082E5
S11301A044281040809A90607C82BA9A723E4888B3
S11301B0483EFE9292926C7C82828244FE828282CB
S11301C07CFE92929282FE909090807C82828ACE73
S11301D0FE101010FE0082FE8200040282FC80FEEB
S11301E010284482FE02020202FE403840FEFE2035
S11301F01008FE7C8282827CFE909090607C828AD1
S1130200847AFE90989462649292924CC080FE80AC
S1130210C0FC020202FCF8040204F8FC021C02FC0A
S1130220C6281028C6C0201E20C0869A92B2C200DA
S1130230FE828282402010080400828282FE2040D6
S1130240804020020202020200C0E01000042A2AB8
S11302501E02FE1422221C1C222222141C222214FE
S1130260FE1C2A2A2A1800107E9040182525391EC3
S1130270FE1020201E0022BE0200040202BC00FE6A
S1130280081422000082FE02003E201E201E3E10A2
S113029020201E1C2222221C3F1824241818242447
S11302A0183F3E10202010122A2A2A242020FC2243
S11302B0243C0202043E38040204383C020C023C92
S11302C02214081422320909093E22262A32220065
S11302D0106C82000000EE000000826C1000408070
S11302E04020403C64C4643C78858586485C0202B6
S11302F0045E1C2A2AAA9A84AAAA9E82842A2A1EF6
S11303008284AA2A1E02042AAA9E0230784A4E48EF
S11303109CAAAAAA9A9C2A2A2A9A9CAA2A2A1A003D
S113032000A23E820040A2BE420080A23E020F9480
S113033024940F0F14A4140F3E2AAAA200042A2AFC
S11303403E2A3E5090FE924C9292924C4C121212C3
S11303504C4C5212120C5C8282845E5C4202041E7B
S113036000B90505BE9C2222229CBC020202BC3CB0
S113037024FF2424127E92C266D4F43FF4D4FF9066
S1130380946F0403117E90C0042A2A9E82000022E6
S1130390BE820C1212524C1C0202445E005E50508B
S11303A04EBEB0988CBE649494F414649494946493
S11303B00C12B202041C10101010101010101CF4B7
S11303C00813355DF408142C5F0000DE00001028CB
S11303D054284444285428105500AA005555AA55B9
S11303E0AA55AA55AA55AA000000FF00080808FF4C
S11303F000282828FF000808FF00FF08080F080F3E
S11304002828283F002828EF00FF0000FF00FF28CD
S1130410282F203F2828E808F80808F808F8282892
S113042028F8000808080F00000000F80808080869
S1130430F8080808080F08000000FF080808080862
S113044008080808FF08000000FF280000FF00FF5C
S11304500000F808E800003F202F2828E808E828D2
S1130460282F202F0000FF00EF28282828282828DC
S1130470EF00EF282828E8280808F808F828282892
S11304802F2808080F080F0000F808F8000000F8EB
S1130490280000003F2800000F080F0808FF08FF8D
S11304A0282828FF28080808F8000000000F08FF83
S11304B0FFFFFFFF0F0F0F0F0FFFFFFF00000000F4
S11304C000FFFFF0F0F0F0F01C22221C223E5454F6
S11304D07C287E40406060407E407E40C6AA928276
S11304E0C61C22223C20027E04780460407E4040E8
S11304F099A5E7A5993854925438324E804E320C5F
S113050052B2B20C0C121E120C3D465A62BC7C92C2
S11305109292007E8080807E54545454542222FA55
S11305202222028A5222020222528A020000FF8000
S1130530C00701FF00001010D6D6106C486C246C64
S113054060F090F060000018180000000808000C2B
S113055002FF808000F88080780098B8E848003C6A
S11305603C3C3C0011241FBECFEFD8E0DEBFCDBF22
S113057015E0A0E0B1E0E4EFF0E202C005900D92D6
S1130580A632B107D9F725E0A6E2B5E001C01D9275
S1130590A233B207E1F70E94770A0C9478100C9406
S11305A000005C9827E030E090E05D98AC01022EFA
S11305B002C0559547950A94E2F740FF02C05E9A3F
S11305C001C05E985D9A2150310978F70895569AD2
S11305D0559A549A539A529A5A985B982FEF89E6EF
S11305E098E1215080409040E1F700C000005B9A00
S11305F083EA0E94D10280EA0E94D10280EC0E9428
S1130600D10280E40E94D1028CE20E94D1022FEF39
S113061080E792E0215080409040E1F700C0000064
S11306208EE20E94D1022FEF80E792E021508040B9
S11306309040E1F700C000008FE20E94D1028FE3F6
S11306409CE90197F1F700C0000086E20E94D10204
S113065008955C9A27E030E090E05D98AC01022EAA
S113066002C0559547950A94E2F740FF02C05E9A8E
S113067001C05E985D9A2150310978F70895CF93AF
S1130680C82F81E80E94D1028C2F8F730E94D1025F
S1130690CF910895CF92DF92EF92FF920F931F9321
S11306A0CF93DF930F2EF4E0EF2EF5E0FF2EF02D25
S11306B0EC010F2EF4E1CF2EF5E0DF2EF02DF70143
S11306C08081F2E0EF0EF11C806B0E94D10280E089
S11306D00E94D10280E10E94D10280EE0E94D102E8
S11306E08FEF0E9429038E0100581F4F89910E94A9
S11306F02903C017D107D1F7E801CE14DF04F9F6B6
S1130700DF91CF911F910F91FF90EF90DF90CF90E9
S1130710089520E034E0FC01A901119241505040B9
S1130720E1F7089530E0F901EE0FFF1FEE0FFF1F10
S1130730E20FF31FE859FF4F55E0560F9C0170E894
S1130740479F200D311D11249491D901A60FB11D8D
S11307509C936F5F31966513F7CF0895242F2695E8
S113076026952695E62FF0E030E8239FE00DF11D55
S11307701124E80FF91F4095477081E090E002C012
S1130780880F991F4A95E2F79081892B80830895F9
S1130790242F269526952695E62FF0E030E8239F12
S11307A0E00DF11D1124E80FF91F4095477081E019
S11307B090E002C0880F991F4A95E2F780959081D6
S11307C0892380830895CF92DF92FF920F931F9322
S11307D0CF93DF936C01F42E8901D4E1D60FC62F99
S11307E0F80121918F014F2D6C2FC6010E949203B5
S11307F0CB5FCD13F5CFDF91CF911F910F91FF9078
S1130800DF90CF900895EF92FF920F931F93CF93B1
S1130810DF937C01D62FC42F122F40130EC0621712
S113082010F0D22F162F21E04C2F6D2FC7010E94FC
S1130830AE03DF5F1D17B8F719C062130EC040176F
S113084010F0C02F042F21E04C2F6D2FC7010E9400
S1130850AE03CF5F0C17B8F709C021E00E94AE03C6
S113086021E0402F612FC7010E94AE03DF91CF9199
S11308701F910F91FF90EF9008959F92AF92BF92B6
S1130880CF92DF92EF92FF920F931F93CF93DF9358
S11308907C01D62F942E862F90E06C01C20ED11CC1
S11308A021E0C21AD108C816D906ACF420C0C92D5B
S11308B021E04C2F6D2FC7010E94AE03CF5F8C2F18
S11308C090E008171907A4F7DF5F8D2F90E0C81692
S11308D0D9064CF40CC0A42EB12CC501800F911D77
S11308E08C01015011090A151B050CF7EDCFDF919E
S11308F0CF911F910F91FF90EF90DF90CF90BF9019
S1130900AF909F9008955F926F927F928F929F9283
S1130910AF92BF92CF92DF92EF92FF920F931F9309
S1130920CF93DF937C01162FD42F862F90E05C01A8
S1130930A20EB11C350121E0621A7108681679060D
S1130940ACF421C0CD2F21E04C2F652DC7010E94AE
S1130950AE03CF5F8C2F90E0C816D906A4F753944A
S1130960852D90E06816790654F40DC0562E842E19
S1130970912C6401C00ED11C81E0C81AD108C8149E
S1130980D90404F7ECCF99249394910E22E0A21A8F
S1130990B108892D90E0A816B906FCF0C02ED12C20
S11309A0CD0ED11C82E0C81AD108C1E0CD0F8C2F26
S11309B090E0C816D9065CF04C2F692DC7010E943F
S11309C0C803CF5F8C2F90E0C816D906ACF7939478
S11309D0892D90E0A816B90644F7DF91CF911F91B5
S11309E00F91FF90EF90DF90CF90BF90AF909F90CA
S11309F08F907F906F905F9008956F927F928F9207
S1130A009F92AF92BF92CF92DF92EF92FF920F9399
S1130A101F93CF93DF936C01229F70011124A62EA4
S1130A20B12CB194A194B108612C842E912C1DC0D9
S1130A30CC9FC001CD9F900D900D1124800F911F6C
S1130A40E816F90634F021E0472D662DC6010E9410
S1130A50AE037394219680E47812EACF63948FEF07
S1130A60A81AB80A80E8681661F0AA9C8001AB9CB9
S1130A70100D100D1124CC27DD27C819D909712CAC
S1130A80D7CFDF91CF911F910F91FF90EF90DF901F
S1130A90CF90BF90AF909F908F907F906F9008956C
S1130AA09F92AF92BF92CF92DF92EF92FF920F93F9
S1130AB01F93CF93DF937C01D62F942E862F90E043
S1130AC06C01C20ED11C21E0C21AD108C816D90685
S1130AD0A4F41FC0C92D4C2F6D2FC7010E94C80359
S1130AE0CF5F8C2F90E008171907ACF7DF5F8D2FCD
S1130AF090E0C816D9064CF40CC0A42EB12CC50144
S1130B00800F911D8C01015011090A151B0514F762
S1130B10EDCFDF91CF911F910F91FF90EF90DF9078
S1130B20CF90BF90AF909F9008952F923F925F9285
S1130B307F928F92AF92BF92CF92DF92EF92FF9209
S1130B400F931F93CF93DF931C01E62EF12CF194A6
S1130B50E194F108512CC42ED12C88248394712C57
S1130B602DC09501482D9FEF900F9E3308F0472D1F
S1130B70882D1E3708F0872D842399F0229FC00109
S1130B80239F900D900D11248C0F9D1F282D0A97E3
S1130B900CF0272D222329F0402F652DC1010E943E
S1130BA0C8030F5F8FEFA81AB80A0034D1F6539424
S1130BB08FEFE81AF80A80E8581671F0EE9CE0010D
S1130BC0EF9CD00DD00D1124AA24BB24AC18BD0871
S1130BD000E01FEF150DC5CFC1010E944A03DF914C
S1130BE0CF911F910F91FF90EF90DF90CF90BF9026
S1130BF0AF908F907F905F903F902F900895CF9308
S1130C00DF9386B590E00E940A100E94051083705D
S1130C109078992324F401978C6F9F6F019681300B
S1130C20910569F01CF4892B39F012C082309105CA
S1130C3049F0039751F00CC0C1E0D1E00BC0CFEFF5
S1130C40D1E008C0C1E0DFEF05C0CFEFDFEF02C0A5
S1130C50C0E0D0E00E94051081709078992324F4BC
S1130C6001978E6F9F6F0196009719F0019719F005
S1130C7004C083E003C082E001C080E090E0D89F1C
S1130C809001D99F300D112430932D0520932C050C
S1130C90C89F9001C99F300D112430932B052093D8
S1130CA02A05DF91CF91089580E480938000E1E8E4
S1130CB0F0E08081896080830895219A29980E94B8
S1130CC054060895299821980895CF92DF92EF92BF
S1130CD0FF920F931F93CF93DF93E1E8F0E08081BD
S1130CE08E7F808380818D7F808380818B7F8083D2
S1130CF0C2E004E00C0FEE24E39420E44C2F60E403
S1130D0084E091E00E940304C85FC23491F74091EB
S1130D10180560911A0584E091E00E94950584E02D
S1130D2091E00E944A0340911E0550911F05E091F5
S1130D301805F091190560912C0570912D0591E02D
S1130D4020911A0530911B052830310508F090E0F8
S1130D50872F881F8827881F982381E09A012650AF
S1130D603109E217F30708F480E0892329F1495F88
S1130D705F4F81E04E175F0708F480E08823E1F0BD
S1130D8071956195710970932D0560932C0588E523
S1130D9092E09093890080938800219A29980E9478
S1130DA054062FEF33ED80E3215030408040E1F7CB
S1130DB000C000002998219840911C0550911D0500
S1130DC0E0911805F091190560912C0570912D059D
S1130DD091E020911A0530911B052837310508F45C
S1130DE090E081E0161617060CF080E0982381E06D
S1130DF09A0126503109E217F30708F480E08923A9
S1130E0029F1495F5F4F81E04E175F0708F480E0E6
S1130E108823E1F071956195710970932D056093B4
S1130E202C0588E592E09093890080938800219AAC
S1130E3029980E9454069FEFE3EDF0E39150E040BF
S1130E40F040E1F700C0000029982198809118052E
S1130E50909119050497C89700F180912A05909103
S1130E602B0591958195910990932B0580932A05E3
S1130E7080E69AEE9093890080938800219A2998BD
S1130E800E9454062FEF33ED80E321503040804020
S1130E90E1F700C000002998219880911A059091EB
S1130EA01B05049708F08DC0289A2A9A80912C0576
S1130EB090912D0591958195910990932D0580939D
S1130EC02C058AE090E09093890080938800219A11
S1130ED029980E9454068091140590911505019655
S1130EE090931505809314050E94FF054091180501
S1130EF060911A0584E091E00E94950580E490E0F9
S1130F0090931B0580931A0580E290E09093190555
S1130F108093180501E023E040E260E484E091E07E
S1130F200E94FD042091160540E069E384E091E00D
S1130F300E9492032091140540E063E484E091E070
S1130F400E9492030F2EFEE1CF2EF5E0DF2EF02D4E
S1130F50F60140814450EE24E3940AE022E062E08A
S1130F6084E091E00E943D04CCE1D5E04881445006
S1130F7022E06CE784E091E00E943D0484E091E08B
S1130F800E944A0340E260E484E091E00E949505F7
S1130F90F6014081445022E062E084E091E00E9446
S1130FA03D044881445022E06CE784E091E00E94D3
S1130FB03D0484E091E00E944A03299821982898EE
S1130FC02A9880911A0590911B058C37910508F495
S1130FD08DC0289A2A9A80912C0590912D0591957F
S1130FE08195910990932D0580932C058AE090E0DA
S1130FF09093890080938800219A29980E9454062E
S1131000809116059091170501969093170580938A
S113101016050E94FF054091180560911A0584E0A9
S113102091E00E94950580E490E090931B058093E5
S11310301A0580E290E0909319058093180501E069
S113104023E040E260E484E091E00E94FD0420910A
S1131050160540E069E384E091E00E949203209148
S1131060140540E063E484E091E00E9492030F2EB3
S1131070FEE1CF2EF5E0DF2EF02DF6014081445045
S1131080EE24E3940AE022E062E084E091E00E942E
S11310903D04CCE1D5E04881445022E06CE784E093
S11310A091E00E943D0484E091E00E944A0340E202
S11310B060E484E091E00E949505F601408144508B
S11310C022E062E084E091E00E943D0448814450C3
S11310D022E06CE784E091E00E943D0484E091E02A
S11310E00E944A032998219828982A9880911605E5
S11310F090911705C39708F4DAC023E340E069E34D
S113110084E091E00E9492030F2EF2E1FF2EF02D75
S11311100F2EF8E8CF2ED12CF02D2EC0F60111831E
S11311200083C0FF02C0289A01C028980E945D066F
S113113020912005309121054C2F6F2D84E091E002
S11311400E94E30384E091E00E944A032FEF3FE40E
S113115083EC215030408040E1F700C000000E9441
S1131160620621960D561240C730D105B9F692E1B8
S1131170F90EE6E3FE1629F000EE1DE1C1E0D0E031
S1131180CDCF0E94FF05F4E52DEC3DE283E0F15064
S1131190204030408040D9F700C000C0000080E308
S11311A090E090931705809316059093150580930E
S11311B0140500E324E248E062E184E091E00E9447
S11311C0500580912C0590912D059195819591095B
S11311D090932D0580932C0580912A0590912B05E1
S11311E091958195910990932B0580932A054091BF
S11311F0180560911A0584E091E00E94950580E449
S113120090E090931B0580931A0580E290E0909300
S113121019058093180501E023E040E260E484E0CE
S113122091E00E94FD040EE322E041E06CE784E0DB
S113123091E00E94500522E041E062E084E091E008
S11312400E9450058FE190E090931F0580931E0546
S113125090931D0580931C05EE24E3940AE022E09C
S11312604BE162E084E091E00E943D0440911C0562
S1131270445022E06CE784E091E00E943D0484E065
S113128091E00E944A039AEAE6EEF6E921E09150E1
S1131290E040F0402040D9F7000040E260E484E000
S11312A091E00E94950584E091E00E944A038091B8
S11312B0140590911505C39708F4DAC023E340E0C0
S11312C063E484E091E00E9492030F2EFAE4FF2E7F
S11312D0F02D0F2EF8E8CF2ED12CF02D2EC0F601D4
S11312E011830083C0FF02C0289A01C028980E947D
S11312F05D0620912005309121054C2F6F2D84E04F
S113130091E00E94E30384E091E00E944A032FEFFE
S11313103FE483EC215030408040E1F700C00000FE
S11313200E94620621960D561240C730D105B9F6C7
S113133092E1F90EEEE6FE1629F000EE1DE1C1E0A1
S1131340D0E0CDCF0E94FF05F4E52DEC3DE283E033
S1131350F150204030408040D9F700C000C0000068
S113136080E390E0909317058093160590931505FC
S11313708093140500E324E248E06AE484E091E009
S11313800E94500580912C0590912D059195819591
S1131390910990932D0580932C0580912A059091B5
S11313A02B0591958195910990932B0580932A059E
S11313B04091180560911A0584E091E00E9495051A
S11313C080E490E090931B0580931A0580E290E0FE
S11313D0909319058093180501E023E040E260E44E
S11313E084E091E00E94FD040EE322E041E06CE71A
S11313F084E091E00E94500522E041E062E084E054
S113140091E00E9450058FE190E090931F05809336
S11314101E0590931D0580931C05EE24E3940AE0B9
S113142022E04BE162E084E091E00E943D044091BF
S11314301C05445022E06CE784E091E00E943D04E6
S113144084E091E00E944A039AEAE6EEF6E921E09C
S11314509150E040F0402040D9F7000040E260E4C1
S113146084E091E00E94950584E091E00E944A03A3
S11314702091160540E069E384E091E00E94920324
S11314802091140540E063E484E091E00E9492031B
S113149060911A0570911B0580912C0590912D0582
S11314A0680F791F70931B0560931A054091180506
S11314B05091190580912A0590912B05480F591FC9
S11314C0509319054093180501E023E084E091E06E
S11314D00E94FD0484E091E00E944A03DF91CF91D1
S11314E01F910F91FF90EF90DF90CF900895579A3E
S11314F05F988BB18BB984B1856084B985B18A7FDB
S113150085B985B185B9219A29980E94700D85B550
S1131510816085BDE1EBF0E08081816080830E9481
S1131520FF050E94E7028FEA0E94D10288E10E942F
S11315303F0384E091E00E944A032AEA36EE86E9FA
S113154091E02150304080409040D9F7000084E081
S113155091E00E9489030E94FF05EE24E39400E4D5
S113156020E840E060E084E091E00E9483040F2ED4
S1131570FEE1AF2EF5E0BF2EF02D0F2EFCE1CF2EB5
S1131580F5E0DF2EF02D0F2EF6E06F2E712CF02DEE
S11315900F2EF9E34F2E512CF02D0F2EFAE33F2E90
S11315A0F02D212C0F2EF5E08F2E912CF02DF12C07
S11315B029980E946506F50140814450EE24E39485
S11315C00AE022E062E084E091E00E943D04F6013A
S11315D04081445022E06CE784E091E00E943D04A5
S11315E084E091E00E944A030E94F60DEC018F30E2
S11315F091400CF03FC080911E0590911F05069705
S1131600F8F00EE322E041E062E084E091E00E9421
S1131610500540911E0550911F05425051095093A9
S11316201F0540931E0544500AE022E062E084E076
S113163091E00E943D0484E091E00E944A031AC0B4
S11316400EE322E041E062E084E091E00E94500574
S113165070921F0560921E05EE24E3940AE022E0D6
S113166042E062E084E091E00E943D0484E091E085
S11316700E944A03C534D1400CF441C080911E0538
S113168090911F05CA9708F50EE322E041E062E05D
S113169084E091E00E94500540911E0550911F0581
S11316A04E5F5F4F50931F0540931E054450EE2438
S11316B0E3940AE022E062E084E091E00E943D04C9
S11316C084E091E00E944A031AC00EE322E041E064
S11316D062E084E091E00E94500550921F05409220
S11316E01E05EE24E3940AE022E045E362E084E090
S11316F091E00E943D0484E091E00E944A030E942C
S1131700860D892B09F4B7C00E94B10DEC010E942B
S1131710D50D8C01BE01DD0F880B990B0E94C00E04
S113172026E53EE04DE25EE30E944C0F2FE832ECEA
S113173047EB51E40E941B0E0E94880EEB0170934C
S1131740310560933005B801110F880B990B0E9485
S1131750C00E2FE832EC45EF5DE30E944C0F20E011
S113176030E040E152E40E941B0E0E94880E709308
S11317702F0560932E056630710548F490922F056D
S113178080922E05C038D10508F075C0A4C16A3313
S113179071054CF030922E0520922F05C038D105EA
S11317A008F069C010C0C038D10508F064C0809149
S11317B02E0590912F059C012550310926333105C2
S11317C008F059C002C0832D922DC034D1050CF00D
S11317D052C020911E0530911F052817390758F172
S11317E00EE322E041E062E084E091E00E945005D3
S11317F040911E0550911F054350510950931F05F8
S113180040931E054450EE24E3940AE022E062E093
S113181084E091E00E943D0484E091E00E944A0348
S113182020912E0530912F0580911E0590911F0562
S11318308217930700F50EE322E041E062E084E0C2
S113184091E00E94500540911E0550911F054D5F87
S11318505F4F50931F0540931E054450EE24E394BC
S11318600AE022E062E084E091E00E943D0484E02A
S113187091E00E944A0381E020911A0530911B05F2
S11318802436310508F48F2D882309F41EC181E024
S113189020912C0530912D05121613060CF08F2D76
S11318A0882309F412C180911805909119059C01AF
S11318B0255031092633310508F054C020911C0508
S11318C030911D058217930760F10EE322E041E099
S11318D06CE784E091E00E94500540911C05509112
S11318E01D054A5F5F4F50931D0540931C054450EE
S11318F0EE24E3940AE022E06CE784E091E00E94A5
S11319003D0484E091E00E944A032091180530913F
S1131910190580911C0590911D058217930708F401
S1131920D4C00EE322E041E06CE784E091E00E9441
S1131930500540911C0550911D0546505109509386
S11319401D0540931C054450EE24E3940AE022E074
S11319506CE784E091E00E943D0484E091E00E9401
S11319604A03B3C08530910508F057C09092290509
S11319708092280580911C0590911D05069760F5BD
S11319800EE322E041E06CE784E091E00E94500520
S113199040911C0550911D054A5F5F4F50931D05F2
S11319A040931C054450EE24E3940AE022E06CE7E3
S11319B084E091E00E943D0484E091E00E944A03A7
S11319C0209128053091290580911C0590911D05D1
S11319D08217930708F479C00EE322E041E06CE734
S11319E084E091E00E94500540911C0550911D0532
S11319F04650510950931D0540931C054450EE2454
S1131A00E3940AE022E06CE784E091E00E943D0464
S1131A1084E091E00E944A0358C0CB9708F455C073
S1131A20309226052092270580911C0590911D0572
S1131A30CB9758F50EE322E041E06CE784E091E0B7
S1131A400E94500540911C0550911D054A5F5F4F4F
S1131A5050931D0540931C054450EE24E3940AE082
S1131A6022E06CE784E091E00E943D0484E091E090
S1131A700E944A03209126053091270580911C0578
S1131A8090911D058217930700F10EE322E041E0D7
S1131A906CE784E091E00E94500540911C05509150
S1131AA01D054650510950931D0540931C05445093
S1131AB0EE24E3940AE022E06CE784E091E00E94E3
S1131AC03D0484E091E00E944A03299884E091E077
S1131AD00E944A036DCD80912E0590912F0575CEFD
S1131AE0EAE7F0E08081876080838081806880837A
S1131AF0EBE7F0E08081887F8083ECE7F0E0808191
S1131B008064808380818F7780830895ECE7F0E0A0
S1131B108081807F808380818360808387B1807FA0
S1131B2087B988B1807F88B987B1836087B93A98CB
S1131B303B98409841984298439AEAE7F0E08081C4
S1131B4080648083808186FDFDCF20917800309170
S1131B50790081E090E0243F314010F080E090E093
S1131B600895ECE7F0E08081807F8083808182604B
S1131B70808387B1807F87B988B1807F88B987B136
S1131B80836087B93A983B9842984398409A419821
S1131B90EAE7F0E0808180648083808186FDFDCF68
S1131BA080917800909179000895ECE7F0E08081CD
S1131BB0807F808387B1807F87B988B1807F88B92F
S1131BC087B18C6087B93898399840984198429A7F
S1131BD04398EAE7F0E0808180648083808186FD19
S1131BE0FDCF80917800909179000895ECE7F0E0C2
S1131BF08081807F808380818460808387B1807FBF
S1131C0087B988B1807F88B93C98449838983998C6
S1131C103A983B984298439840984198EAE7F0E014
S1131C20808180648083808186FDFDCF80917800EF
S1131C309091790008955058BB27AA270E94330E2B
S1131C400C94120F0E94040F38F00E940B0F20F026
S1131C5039F49F3F19F426F40C94010F0EF4E09527
S1131C60E7FB0C94FB0EE92F0E94230F58F3BA17DD
S1131C70620773078407950720F079F4A6F50C949E
S1131C80450F0EF4E0950B2EBA2FA02D0B01B901D0
S1131C9090010C01CA01A0011124FF27591B99F0DE
S1131CA0593F50F4503E68F11A16F040A22F232FEA
S1131CB0342F4427585FF3CF469537952795A7953A
S1131CC0F0405395C9F77EF41F16BA0B620B730BE1
S1131CD0840BBAF09150A1F0FF0FBB1F661F771F52
S1131CE0881FC2F70EC0BA0F621F731F841F48F407
S1131CF0879577956795B795F7959E3F08F0B0CF90
S1131D009395880F08F09927EE0F97958795089576
S1131D100E948F0E6894B1110C94460F08950E948E
S1131D202B0F88F09F5798F0B92F9927B751B0F02F
S1131D30E1F0660F771F881F991F1AF0BA95C9F74B
S1131D4014C0B13091F00E94450FB1E008950C9495
S1131D50450F672F782F8827B85F39F0B93FCCF348
S1131D60869577956795B395D9F73EF490958095C8
S1131D70709561957F4F8F4F9F4F0895E89409C0E8
S1131D8097FB3EF490958095709561957F4F8F4FAA
S1131D909F4F9923A9F0F92F96E9BB279395F695C0
S1131DA0879577956795B795F111F8CFFAF4BB0F3E
S1131DB011F460FF1BC06F5F7F4F8F4F9F4F16C0A2
S1131DC0882311F096E911C0772321F09EE8872F2C
S1131DD0762F05C0662371F096E8862F70E060E0E8
S1131DE02AF09A95660F771F881FDAF7880F969561
S1131DF0879597F9089597F99F6780E870E060E008
S1131E0008959FEF80EC089500240A94161617068F
S1131E1018060906089500240A94121613061406D7
S1131E2005060895092E0394000C11F4882352F03A
S1131E30BB0F40F4BF2B11F460FF04C06F5F7F4FF2
S1131E408F4F9F4F089557FD9058440F551F59F0D9
S1131E505F3F71F04795880F97FB991F61F09F3F93
S1131E6079F087950895121613061406551FF2CFBC
S1131E704695F1DF08C0161617061806991FF1CF0C
S1131E8086957105610508940895E894BB27662733
S1131E907727CB0197F908950E945F0F0C94120FD6
S1131EA00E94040F38F00E940B0F20F0952311F0CC
S1131EB00C94FB0E0C94010F11240C94460F0E94F9
S1131EC0230F70F3959FC1F3950F50E0551F629F48
S1131ED0F001729FBB27F00DB11D639FAA27F00D7F
S1131EE0B11DAA1F649F6627B00DA11D661F829FA6
S1131EF02227B00DA11D621F739FB00DA11D621F8B
S1131F00839FA00D611D221F749F3327A00D611DA7
S1131F10231F849F600D211D822F762F6A2F112489
S1131F209F5750409AF0F1F088234AF0EE0FFF1FBC
S1131F30BB1F661F771F881F91505040A9F79E3F13
S1131F40510580F00C94FB0E0C94460F5F3FE4F3B4
S1131F50983ED4F3869577956795B795F795E79569
S1131F609F5FC1F7FE2B880F911D9695879597F972
S1131F7008958F929F92AF92BF92CF92DF92EF9289
S1131F80FF92CF93DF93EC01688179818A819B81F1
S1131F90611571058105910521F464E279ED8BE504
S1131FA097E02DE133EF41E050E00E941510490124
S1131FB05A019B01AC01A7EAB1E40E9434106B0101
S1131FC07C01ACEEB4EFA50194010E944210DC0147
S1131FD0CB018C0D9D1DAE1DBF1DB7FF03C0019726
S1131FE0A109B04888839983AA83BB839F77DF9133
S1131FF0CF91FF90EF90DF90CF90BF90AF909F90E4
S11320008F9008950E94B90F089580E091E00E9496
S1132010B90F0895A0E0B0E080930001909301010E
S1132020A0930201B09303010895052E97FB1EF4BB
S113203000940E942C1057FD07D00E94471007FC03
S113204003D04EF40C942C10509540953095219566
S11320503F4F4F4F5F4F08959095809570956195D0
S11320607F4F8F4F9F4F08950E946910A59F900D39
S1132070B49F900DA49F800D911D11240895B7FF66
S11320800C9434100E943410821B930B0895A1E227
S11320901A2EAA1BBB1BFD010DC0AA1FBB1FEE1FDE
S11320A0FF1FA217B307E407F50720F0A21BB30B29
S11320B0E40BF50B661F771F881F991F1A9469F7A5
S11320C060957095809590959B01AC01BD01CF0101
S11320D00895A29FB001B39FC001A39F700D811DFD
S11320E01124911DB29F700D811D1124911D08951D
S10720F0F894FFCF8E
S11320F4010000007F7F7F7F717F717F7F7F7F7FFF
S11321047E7F7A7B7F7F7F7F7F7F7F7F7F717F7FEF
S1132114717F7F7F0000606060787F7F7F7F7F6056
S11321246060606060707078783E3F1F1F0F070125
S11321340000000000000000000000000000000097
S11321440000000000000000000000000000000087
S11321540000000000000000000000000000000077
S11321640000000000000000000000000000000067
S113217400000000FFFFF0F0F0F0F0F0F0F0F0F0F9
S1132184F1F3F7FFFFFFF7F1F0F0F0F0F0F0F0F007
S1132194F0F0F0FF000000000000FFFFFFFFFF006D
S11321A40000000000000000000083FFFFFFFFFFA9
S11321B43C000101030303030303010100000000C5
S11321C401010101030303030300000101030303E9
S11321D403030301000000000000010101030303E1
S11321E403030000000101030303030301010000CE
S11321F400000000E0FF03000103070F1E3E7FFF01
S1132204FFFF9F0F0F8FFFFFFF7F3E1E0F0703018A
S113221400013FFC000000000000FFFFFFFFFF1C63
S11322241C1C1C1C1C1C1C3C78F8F8F8F1EFDFFF88
S11322347FFFE1C18181818181C1E1F9FFFF7F1FBA
S1132244878080C0FFFFFFFFFF78F0E0C0C0C0C0FC
S1132254C0E0FFFFFFFF3F070000808080FFFFFF17
S1132264FFFF3C78F0E0C0C0C0C0E0F0FFFFFF7F98
S11322741F0000000080E0F8FCFFFF3F1F1E3CF835
S1132284F0E0C08000C0E0F0F83C1E1F3FFFFFFCFC
S1132294F8E08000000000000000FFFFFFFFFF00E3
S11322A4000000000000000000000000FEFFFFFF2B
S11322B4FFBF818080808080808080808080808057
S11322C480000000FFFFFFFFFF000000000000008B
S11322D40000FFFFFFFFFFFF0000000000FFFFFFFF
S11322E4FFFF00000000000000000000FFFFFFFFEC
S11322F4FF00000000000000000080C0E0703018FF
S11323040C0C0606060C0C18183060E0C0800000A3
S1132314000000000000060E0E3EFEFEFEFEFE7EE1
S11323240E0E060000000000000000000080E0F033
S1132334F8FCFC7E3E1E0E0E0E060E0E0E1C3878A5
S1132344E6060E1EFEFEFEFEFE0E0E06000000064F
S1132354060EFEFEFEFEFEFE0E0E06060EFEFEFE3D
S1132364FEFE7E0E0E06000000060E0EFEFEFEFEAF
S1132374FE1E0E0600000000000000000000000025
S11323840000000000000000000001010000000043
S11323940000000000000000000000000000000134
S11323A40101000000000000010100000000000021
S11323B40000000000000000010101000000000012
S11323C40000010100000000000000000000000003
S11323D400000000000000000000000000000000F5
S11323E400000000000000000000000000000000E5
S11323F4000000000000FFFFCECECECE001F1F1F42
S113240438381F1F1C383C1F0F00FFFF1C38381FAF
S11324141F07071F1F3B3B1F1F07071F1F3838FFDA
S1132424FFFF000F1F38381CFFFF000F1F1F3B3B2B
S11324341F1F070F1F1F3838FFFFFF00000000781D
S1132444FCFCCECFC7C3181F1F03031F1F181E1F76
S11324543F3B1B0118FFFF1818000F1F3B3B3B1F9A
S11324640F001F1F1C383C1F1F18383F1F07001F75
S11324743F3B3B190000F0F07070707000F0F0F016
S11324840000F0F0000000F0F000F0F0F07070F0E4
S1132494E080C0E0F07030707000C0E0F07070E074
S11324A4F0F000E0F0707070F0F000C0E0F0703014
S11324B4707000C0E0F07070F0F0F0000000006094
S11324C470703070F0E00000EEFEFCE0000070700C
S11324D430F0F0E000E0F0707000E0F07030307044
S11324E46000F0F0000000F0F00000F0F0F0607024
S11324F430B0F0E003000200010000000700060011
S11325040500040030003000200040001F001F00BC
S1092514220577696E0048
S9030000FC
