:100000000C9434000C9451000C9451000C94510049
:100010000C9451000C9451000C9451000C9451001C
:100020000C9451000C9451000C9451000C9451000C
:100030000C9451000C9451000C9451000C945100FC
:100040000C9451000C9451000C9451000C945100EC
:100050000C9451000C9451000C9451000C945100DC
:100060000C9451000C94510011241FBECFEFD8E026
:10007000DEBFCDBF15E0A0E0B1E0E2ECF7E002C0EA
:1000800005900D92AC32B107D9F725E0ACE2B5E0AE
:1000900001C01D92A233B207E1F70E945E010C94E9
:1000A000DF030C9400005C9827E030E090E05D985E
:1000B000AC01022E02C0559547950A94E2F740FF25
:1000C00002C05E9A01C05E985D9A2150310978F7AE
:1000D0000895569A559A549A539A529A5A985B98F8
:1000E0002FE986E891E0215080409040E1F700C080
:1000F00000005B9A83EA0E94530080EA0E9453004A
:1001000080EC0E94530080E40E9453008CE20E9425
:10011000530083ED90E30197F1F700C000008EE2F9
:100120000E94530083ED90E30197F1F700C00000B7
:100130008FE20E94530083EC99E00197F1F700C031
:10014000000086E20E94530008955C9A27E030E0A8
:1001500090E05D98AC01022E02C0559547950A9437
:10016000E2F740FF02C05E9A01C05E985D9A21509E
:10017000310978F70895CF93C82F81E80E94530082
:100180008C2F8F730E945300CF910895CF92DF92EE
:10019000EF92FF920F931F93CF93DF930F2EF0E018
:1001A000EF2EF5E0FF2EF02DEC010F2EF0E1CF2E1B
:1001B000F5E0DF2EF02DF7018081F2E0EF0EF11C6B
:1001C000806B0E94530080E00E94530080E10E94F7
:1001D000530080EE0E9453008FEF0E94A5008E0115
:1001E00000581F4F89910E94A500C017D107D1F771
:1001F000E801CE14DF04F9F6DF91CF911F910F9142
:10020000FF90EF90DF90CF90089520E034E0FC0164
:10021000A901119241505040E1F70895242F2695ED
:1002200026952695E62FF0E030E8239FE00DF11D9E
:100230001124E80FF91F4095477081E090E002C05B
:10024000880F991F4A95E2F79081892B8083089542
:10025000CF93C82F8A3019F48DE00E942801E0EC7A
:10026000F0E0808185FFFDCFC093C60080E090E084
:10027000CF910895E0ECF0E080818823ECF7809145
:10028000C60090E008951092C50087E68093C400F0
:10029000E0ECF0E080818D7F808386E08093C20077
:1002A00088E18093C100ECE2F5E08EE195E0938374
:1002B000828380E195E09183808308950E944301C9
:1002C000579A5F988BB18BB984B1856084B985B139
:1002D0008A7F85B985B185B90E94C2010E946900F3
:1002E0008FEA0E94530088E10E94BB0080E091E009
:1002F0000E94C6002FE784E89EE121508040904094
:10030000E1F700C0000080E091E00E9405010E943A
:10031000D801892BE1F30E940302EC010E9427021D
:10032000BC0180E090E00E94E4022FE832EC45EF4F
:100330005DE30E94720320E030E040E152E40E945D
:1003400048020E94B502162FBE0180E090E00E9494
:10035000E40226E53EE04DE25EE30E9472032FE8F0
:1003600032EC47EB51E40E9448020E94B50221E0C2
:10037000412F80E091E00E940E0180E091E00E9418
:10038000C600C5CFEAE7F0E0808187608083808186
:1003900080688083EBE7F0E08081887F8083ECE7F2
:1003A000F0E080818064808380818F7780830895EE
:1003B000ECE7F0E08081807F8083808183608083B0
:1003C00087B1807F87B988B1807F88B987B1836022
:1003D00087B93A983B98409841984298439AEAE7FF
:1003E000F0E0808180648083808186FDFDCF209154
:1003F00078003091790081E090E0243F314010F0A6
:1004000080E090E00895ECE7F0E08081807F8083D9
:1004100080818260808387B1807F87B988B1807F47
:1004200088B987B1836087B93A983B9842984398D6
:10043000409A4198EAE7F0E080818064808380817F
:1004400086FDFDCF80917800909179000895ECE7CA
:10045000F0E08081807F808387B1807F87B988B119
:10046000807F88B987B18C6087B93898399840986F
:100470004198429A4398EAE7F0E080818064808363
:10048000808186FDFDCF809178009091790008955C
:100490005058BB27AA270E9460020C9438030E9480
:1004A0002A0338F00E94310320F039F49F3F19F4F9
:1004B00026F40C9427030EF4E095E7FB0C9421033B
:1004C000E92F0E94490358F3BA176207730784079C
:1004D000950720F079F4A6F50C946B030EF4E095E3
:1004E0000B2EBA2FA02D0B01B90190010C01CA01EE
:1004F000A0011124FF27591B99F0593F50F4503E99
:1005000068F11A16F040A22F232F342F4427585F8A
:10051000F3CF469537952795A795F0405395C9F7A2
:100520007EF41F16BA0B620B730B840BBAF091505A
:10053000A1F0FF0FBB1F661F771F881FC2F70EC0F9
:10054000BA0F621F731F841F48F4879577956795CC
:10055000B795F7959E3F08F0B0CF9395880F08F0B8
:100560009927EE0F9795879508950E94510388F07B
:100570009F5798F0B92F9927B751B0F0E1F0660F67
:10058000771F881F991F1AF0BA95C9F714C0B130A8
:1005900091F00E946B03B1E008950C946B03672FF8
:1005A000782F8827B85F39F0B93FCCF386957795D7
:1005B0006795B395D9F73EF49095809570956195C0
:1005C0007F4F8F4F9F4F0895E89409C097FB3EF4EB
:1005D00090958095709561957F4F8F4F9F4F992390
:1005E000A9F0F92F96E9BB279395F695879577950E
:1005F0006795B795F111F8CFFAF4BB0F11F460FFCE
:100600001BC06F5F7F4F8F4F9F4F16C0882311F025
:1006100096E911C0772321F09EE8872F762F05C039
:10062000662371F096E8862F70E060E02AF09A95D4
:10063000660F771F881FDAF7880F9695879597F9C9
:10064000089597F99F6780E870E060E008959FEF54
:1006500080EC089500240A94161617061806090659
:10066000089500240A941216130614060506089528
:10067000092E0394000C11F4882352F0BB0F40F4B0
:10068000BF2B11F460FF04C06F5F7F4F8F4F9F4FF0
:10069000089557FD9058440F551F59F05F3F71F072
:1006A0004795880F97FB991F61F09F3F79F08795D9
:1006B0000895121613061406551FF2CF4695F1DF62
:1006C00008C0161617061806991FF1CF86957105F2
:1006D000610508940895E894BB2766277727CB0126
:1006E00097F908950E9485030C9438030E942A0309
:1006F00038F00E94310320F0952311F00C9421036F
:100700000C94270311240C946C030E94490370F38A
:10071000959FC1F3950F50E0551F629FF001729FA6
:10072000BB27F00DB11D639FAA27F00DB11DAA1FB5
:10073000649F6627B00DA11D661F829F2227B00D02
:10074000A11D621F739FB00DA11D621F839FA00D8D
:10075000611D221F749F3327A00D611D231F849FDD
:10076000600D211D822F762F6A2F11249F57504034
:100770009AF0F1F088234AF0EE0FFF1FBB1F661FAF
:10078000771F881F91505040A9F79E3F510580F078
:100790000C9421030C946C035F3FE4F3983ED4F374
:1007A000869577956795B795F795E7959F5FC1F71C
:1007B000FE2B880F911D9695879597F90895F894CB
:0207C000FFCF69
:1007C2007F7F7F7F717F717F7F7F7F7F7E7F7A7B5D
:1007D2007F7F7F7F7F7F7F7F7F717F7F717F7F7F43
:1007E2000000606060787F7F7F7F7F606060606014
:1007F20060707078783E3F1F1F0F070100000000F5
:1008020000000000000000000000000000000000E6
:1008120000000000000000000000000000000000D6
:1008220000000000000000000000000000000000C6
:1008320000000000000000000000000000000000B6
:10084200FFFFF0F0F0F0F0F0F0F0F0F0F1F3F7FF6E
:10085200FFFFF7F1F0F0F0F0F0F0F0F0F0F0F0FF61
:10086200000000000000FFFFFFFFFF00000000008B
:1008720000000000000083FFFFFFFFFF3C000101BA
:10088200030303030303010100000000010101014E
:100892000303030303000001010303030303030132
:1008A2000000000000000101010303030303000034
:1008B2000001010303030303010100000000000023
:1008C200E0FF03000103070F1E3E7FFFFFFF9F0FA4
:1008D2000F8FFFFFFF7F3E1E0F07030100013FFC4A
:1008E200000000000000FFFFFFFFFF1C1C1C1C1C7F
:1008F2001C1C1C3C78F8F8F8F1EFDFFF7FFFE1C128
:100902008181818181C1E1F9FFFF7F1F878080C0E2
:10091200FFFFFFFFFF78F0E0C0C0C0C0C0E0FFFFF4
:10092200FFFF3F070000808080FFFFFFFFFF3C7852
:10093200F0E0C0C0C0C0E0F0FFFFFF7F1F0000007A
:100942000080E0F8FCFFFF3F1F1E3CF8F0E0C08093
:1009520000C0E0F0F83C1E1F3FFFFFFCF8E0800003
:10096200000000000000FFFFFFFFFF00000000008A
:100972000000000000000000FEFFFFFFFFBF8180BB
:1009820080808080808080808080808080000000E5
:10099200FFFFFFFFFF000000000000000000FFFF5C
:1009A200FFFFFFFF0000000000FFFFFFFFFF00004E
:1009B2000000000000000000FFFFFFFFFF0000003A
:1009C20000000000000080C0E07030180C0C060629
:1009D200060C0C18183060E0C08000000000000017
:1009E2000000060E0E3EFEFEFEFEFE7E0E0E06000F
:1009F20000000000000000000080E0F0F8FCFC7E37
:100A02003E1E0E0E0E060E0E0E1C3878E6060E1E4A
:100A1200FEFEFEFEFE0E0E0600000006060EFEFEA6
:100A2200FEFEFEFE0E0E06060EFEFEFEFEFE7E0E14
:100A32000E06000000060E0EFEFEFEFEFE1E0E0656
:100A420000000000000000000000000000000000A4
:100A52000000000000000101000000000000000092
:100A62000000000000000000000000010101000081
:100A72000000000001010000000000000000000072
:100A8200000000000101010000000000000001015F
:100A92000000000000000000000000000000000054
:100AA2000000000000000000000000000000000044
:100AB2000000000000000000000000000000000034
:100AC2000000FFFFCECECECE001F1F1F38381F1FE3
:100AD2001C383C1F0F00FFFF1C38381F1F07071F61
:100AE2001F3B3B1F1F07071F1F3838FFFFFF000F69
:100AF2001F38381CFFFF000F1F1F3B3B1F1F070F34
:100B02001F1F3838FFFFFF0000000078FCFCCECF2B
:100B1200C7C3181F1F03031F1F181E1F3F3B1B01C4
:100B220018FFFF1818000F1F3B3B3B1F0F001F1F32
:100B32001C383C1F1F18383F1F07001F3F3B3B1943
:100B42000000F0F07070707000F0F0F00000F0F053
:100B5200000000F0F000F0F0F07070F0E080C0E013
:100B6200F07030707000C0E0F07070E0F0F000E003
:100B7200F0707070F0F000C0E0F07030707000C083
:100B8200E0F07070F0F0F000000000607070307003
:100B9200F0E00000EEFEFCE00000707030F0F0E0EB
:100BA20000E0F0707000E0F0703030706000F0F043
:100BB200000000F0F00000F0F0F0607030B0F0E003
:100BC2000300020001000000070006000500040007
:100BD200000000010000000000003A0100000000D7
:0C0BE200000200000000280100000000DC
:00000001FF
